S0190000616464726573735F6D61705F6E696F73322E737265633E
S10F00003400800004C880103A6800102E
S113002004FCFFDE150000DE3A313100260100C079
S113003004FF7FEF150140DF1502C0DF150380DDEB
S11300403A3131001E0100C0060300008C0080C557
S1130050260100B000200000170000DE170140DF79
S11300601702C0DF170380DD0404C0DE3A0880EF06
S113020004FEFFDE150080DD1501C0DD34C8BF0526
S1130210041480B53703C0B53503C0B534C8BF0571
S1130220040880B5C40FC00384010004C41640044C
S1130230C41380043A9220803A9422883A962490F7
S11302400C02C0BC1E1F00984C00C0BC1E080098C5
S11302508C00C0BC1E0D00980C01C0BC1E1200987E
S1130260170080DD1701C0DD0402C0DE3A2800F863
S11302703700C0B53A70EEBB2619C0BB3700C0B515
S11302803A88EFBB3500C0B506F53F003700C0B56E
S11302903A702EBC261600BC3700C0B53A882FBC75
S11302A03500C0B506EE3F003700C0B53A706EBCED
S11302B0261340BC3700C0B53A886FBC3500C0B5C2
S11302C006E73F003700C0B53A70AEBC261080BCCC
S11302D03700C0B53A88AFBC3500C0B506E03F0072
S11302E03700C0B53AC8EFBB3500C0B506DC3F00E7
S11302F03700C0B53AC82FBC3500C0B506D83F009A
S11303003700C0B53AC86FBC3500C0B506D43F004D
S11303103700C0B53AC8AFBC3500C0B506D03F0001
S11303203400C106C4FFFFDE34C8BF05040880B52D
S1130330350000B034C8BF05041480B5C403C0053B
S11303403502C0B58400C005FA7001B84400C00588
S10B03503A7001B806FF3F00FA
S9030320D9
