S0190000616464726573735F6D61705F6E696F73322E737265633E
S10F000034008000049080103A68001066
S113002004FCFFDE150000DE3A313100260100C079
S113003004FF7FEF150140DF1502C0DF150380DDEB
S11300403A3131001E0100C0060500008C0080C555
S11300501E0200B0002C0000060100000020000079
S1130060170000DE170140DF1702C0DF170380DD31
S10B00700404C0DE3A0880EF2D
S113020004FEFFDE150080DD1501C0DD34C8BF0526
S1130210041480B53703C0B53503C0B53400800578
S113022004AF80B5170080B53A302EB81500C0B5BC
S1130230170080DD1701C0DD0402C0DE3A2800F893
S11302403400C106C4FFFFDE34C8BF05040080B516
S1130250350000B000280000402A00008400C005DA
S1130260FA7001B84400C0053A7001B834C83F02BE
S11302700400004217AE40021500404206FD3F0054
S113028034C8BF05040088B5D40FDE053502C0B5F7
S1130290545FC0053503C0B5C401C0053501C0B500
S11302A03A2800F834C8BF05041480B5C403C00557
S11302B03502C0B53A2800F8000000000100000033
S11302C004FEFFDE150080DD1501C0DD34C8BF0566
S11302D0040088B5250000B03400800504AF80B563
S11302E01700C0B5260500B83400800504AE80B5FB
S11302F01700C0B54400C0BD1500C0B5170080DDAF
S10F03001701C0DD0402C0DE3A2800F83A
S9030240BA
