S01A00004C6162355F50617274325F6B65795F6973722E7372656349
S10F000034008000049080103A68001066
S113002004FCFFDE150000DE3A313100260100C079
S113003004FF7FEF150140DF1502C0DF150380DDEB
S11300403A3131001E0100C0060900008C0080C551
S11300501E0500B04C0080C51E0100B0060400005F
S1130060402B0000060200000020000006000000F3
S1130070170000DE170140DF1702C0DF170380DD21
S10B00800404C0DE3A0880EF1D
S113020004FEFFDE150080DD1501C0DD34C8BF0526
S1130210041480B53703C0B53503C0B53400800578
S113022004AC80B51700C0B55C00C0BD1500C0B5F6
S1130230170080DD1701C0DD0402C0DE3A2800F893
S11302403400C106C4FFFFDE34C83F02040000428C
S11302504027000080290000C400C005FA7001B8DE
S11302604400C0053A7001B817AB40023500404263
S113027006FD3F0034C8BF05040088B51440F805E6
S11302803502C0B5547DC1053503C0B5C401C005F0
S11302903501C0B53A2800F834C8BF05041480B548
S11302A0C403C0053502C0B53A2800F800000000B8
S11302B00100000004FEFFDE150080DD1501C0DD35
S11302C034C8BF05040088B5350000B0340080058B
S11302D004AC80B51700C0B5260500B8340080050D
S11302E004AB80B51700C0B54400C0BD1500C0B54F
S11302F0170080DD1701C0DD0402C0DE3A2800F8D3
S9030240BA
